{
  "contractName": "Staking",
  "abi": [
    {
      "inputs": [
        {
          "internalType": "address",
          "name": "_stakingToken",
          "type": "address"
        },
        {
          "internalType": "address",
          "name": "_rewardsToken",
          "type": "address"
        }
      ],
      "stateMutability": "nonpayable",
      "type": "constructor"
    },
    {
      "inputs": [],
      "name": "activeInvestors",
      "outputs": [
        {
          "internalType": "uint256",
          "name": "",
          "type": "uint256"
        }
      ],
      "stateMutability": "view",
      "type": "function",
      "constant": true
    },
    {
      "inputs": [],
      "name": "lastUpdateTime",
      "outputs": [
        {
          "internalType": "uint256",
          "name": "",
          "type": "uint256"
        }
      ],
      "stateMutability": "view",
      "type": "function",
      "constant": true
    },
    {
      "inputs": [],
      "name": "rewardPerTokenStored",
      "outputs": [
        {
          "internalType": "uint256",
          "name": "",
          "type": "uint256"
        }
      ],
      "stateMutability": "view",
      "type": "function",
      "constant": true
    },
    {
      "inputs": [],
      "name": "rewardRate",
      "outputs": [
        {
          "internalType": "uint256",
          "name": "",
          "type": "uint256"
        }
      ],
      "stateMutability": "view",
      "type": "function",
      "constant": true
    },
    {
      "inputs": [
        {
          "internalType": "address",
          "name": "",
          "type": "address"
        }
      ],
      "name": "rewards",
      "outputs": [
        {
          "internalType": "uint256",
          "name": "",
          "type": "uint256"
        }
      ],
      "stateMutability": "view",
      "type": "function",
      "constant": true
    },
    {
      "inputs": [],
      "name": "rewardsToken",
      "outputs": [
        {
          "internalType": "contract IERC20",
          "name": "",
          "type": "address"
        }
      ],
      "stateMutability": "view",
      "type": "function",
      "constant": true
    },
    {
      "inputs": [],
      "name": "stakingToken",
      "outputs": [
        {
          "internalType": "contract IERC20",
          "name": "",
          "type": "address"
        }
      ],
      "stateMutability": "view",
      "type": "function",
      "constant": true
    },
    {
      "inputs": [
        {
          "internalType": "address",
          "name": "",
          "type": "address"
        }
      ],
      "name": "userRewardPerTokenPaid",
      "outputs": [
        {
          "internalType": "uint256",
          "name": "",
          "type": "uint256"
        }
      ],
      "stateMutability": "view",
      "type": "function",
      "constant": true
    },
    {
      "inputs": [
        {
          "internalType": "address",
          "name": "",
          "type": "address"
        }
      ],
      "name": "userTotalRewardPaid",
      "outputs": [
        {
          "internalType": "uint256",
          "name": "",
          "type": "uint256"
        }
      ],
      "stateMutability": "view",
      "type": "function",
      "constant": true
    },
    {
      "inputs": [
        {
          "internalType": "uint256",
          "name": "_amount",
          "type": "uint256"
        }
      ],
      "name": "stake",
      "outputs": [],
      "stateMutability": "nonpayable",
      "type": "function"
    },
    {
      "inputs": [],
      "name": "rewardPerToken",
      "outputs": [
        {
          "internalType": "uint256",
          "name": "",
          "type": "uint256"
        }
      ],
      "stateMutability": "view",
      "type": "function",
      "constant": true
    },
    {
      "inputs": [
        {
          "internalType": "address",
          "name": "account",
          "type": "address"
        }
      ],
      "name": "earned",
      "outputs": [
        {
          "internalType": "uint256",
          "name": "",
          "type": "uint256"
        }
      ],
      "stateMutability": "view",
      "type": "function",
      "constant": true
    },
    {
      "inputs": [
        {
          "internalType": "uint256",
          "name": "_amount",
          "type": "uint256"
        }
      ],
      "name": "withdraw",
      "outputs": [],
      "stateMutability": "nonpayable",
      "type": "function"
    },
    {
      "inputs": [],
      "name": "getReward",
      "outputs": [],
      "stateMutability": "nonpayable",
      "type": "function"
    },
    {
      "inputs": [],
      "name": "exit",
      "outputs": [],
      "stateMutability": "nonpayable",
      "type": "function"
    },
    {
      "inputs": [],
      "name": "getAddress",
      "outputs": [
        {
          "internalType": "address",
          "name": "",
          "type": "address"
        }
      ],
      "stateMutability": "view",
      "type": "function",
      "constant": true
    },
    {
      "inputs": [],
      "name": "getTotalStakedTokens",
      "outputs": [
        {
          "internalType": "uint256",
          "name": "",
          "type": "uint256"
        }
      ],
      "stateMutability": "view",
      "type": "function",
      "constant": true
    },
    {
      "inputs": [
        {
          "internalType": "address",
          "name": "account",
          "type": "address"
        }
      ],
      "name": "getUserStakedTokens",
      "outputs": [
        {
          "internalType": "uint256",
          "name": "",
          "type": "uint256"
        }
      ],
      "stateMutability": "view",
      "type": "function",
      "constant": true
    }
  ],
  "bytecode": "0x6080604052651b48eb57e0006002553480156200001b57600080fd5b50604051620014c4380380620014c4833981810160405281019062000041919062000134565b816000806101000a81548173ffffffffffffffffffffffffffffffffffffffff021916908373ffffffffffffffffffffffffffffffffffffffff16021790555080600160006101000a81548173ffffffffffffffffffffffffffffffffffffffff021916908373ffffffffffffffffffffffffffffffffffffffff16021790555050506200017b565b600080fd5b600073ffffffffffffffffffffffffffffffffffffffff82169050919050565b6000620000fc82620000cf565b9050919050565b6200010e81620000ef565b81146200011a57600080fd5b50565b6000815190506200012e8162000103565b92915050565b600080604083850312156200014e576200014d620000ca565b5b60006200015e858286016200011d565b925050602062000171858286016200011d565b9150509250929050565b611339806200018b6000396000f3fe608060405234801561001057600080fd5b50600436106101155760003560e01c80638b876347116100a2578063c8f33c9111610071578063c8f33c91146102e2578063cd3daf9d14610300578063d1af0c7d1461031e578063df136d651461033c578063e9fad8ee1461035a57610115565b80638b87634714610236578063a694fc3a14610266578063ae1a01a214610282578063c2ff79a0146102b257610115565b80633d18b912116100e95780633d18b912146101b457806351d18598146101be57806372f702f3146101dc5780637b0a47ee146101fa57806381723b7b1461021857610115565b80628cc2621461011a5780630700037d1461014a5780632e1a7d4d1461017a57806338cc483114610196575b600080fd5b610134600480360381019061012f9190610deb565b610364565b6040516101419190610e31565b60405180910390f35b610164600480360381019061015f9190610deb565b610466565b6040516101719190610e31565b60405180910390f35b610194600480360381019061018f9190610e78565b61047e565b005b61019e61071b565b6040516101ab9190610eb4565b60405180910390f35b6101bc610723565b005b6101c66109d1565b6040516101d39190610e31565b60405180910390f35b6101e46109db565b6040516101f19190610f2e565b60405180910390f35b6102026109ff565b60405161020f9190610e31565b60405180910390f35b610220610a05565b60405161022d9190610e31565b60405180910390f35b610250600480360381019061024b9190610deb565b610a0b565b60405161025d9190610e31565b60405180910390f35b610280600480360381019061027b9190610e78565b610a23565b005b61029c60048036038101906102979190610deb565b610c40565b6040516102a99190610e31565b60405180910390f35b6102cc60048036038101906102c79190610deb565b610c89565b6040516102d99190610e31565b60405180910390f35b6102ea610ca1565b6040516102f79190610e31565b60405180910390f35b610308610ca7565b6040516103159190610e31565b60405180910390f35b610326610d0a565b6040516103339190610f2e565b60405180910390f35b610344610d30565b6040516103519190610e31565b60405180910390f35b610362610d36565b005b6000670de0b6b3a7640000600760008473ffffffffffffffffffffffffffffffffffffffff1673ffffffffffffffffffffffffffffffffffffffff168152602001908152602001600020546103b7610ca7565b6103c19190610f78565b600a60008573ffffffffffffffffffffffffffffffffffffffff1673ffffffffffffffffffffffffffffffffffffffff1681526020019081526020016000205461040b9190610fac565b6104159190611035565b600960008473ffffffffffffffffffffffffffffffffffffffff1673ffffffffffffffffffffffffffffffffffffffff1681526020019081526020016000205461045f9190611066565b9050919050565b60096020528060005260406000206000915090505481565b33610487610ca7565b6004819055504260038190555061049d81610364565b600960008373ffffffffffffffffffffffffffffffffffffffff1673ffffffffffffffffffffffffffffffffffffffff16815260200190815260200160002081905550600454600760008373ffffffffffffffffffffffffffffffffffffffff1673ffffffffffffffffffffffffffffffffffffffff1681526020019081526020016000208190555081600a60003373ffffffffffffffffffffffffffffffffffffffff1673ffffffffffffffffffffffffffffffffffffffff1681526020019081526020016000205410156105a8576040517f08c379a000000000000000000000000000000000000000000000000000000000815260040161059f90611119565b60405180910390fd5b81600660008282546105ba9190610f78565b9250508190555081600a60003373ffffffffffffffffffffffffffffffffffffffff1673ffffffffffffffffffffffffffffffffffffffff16815260200190815260200160002060008282546106109190610f78565b9250508190555060008054906101000a900473ffffffffffffffffffffffffffffffffffffffff1673ffffffffffffffffffffffffffffffffffffffff1663a9059cbb33846040518363ffffffff1660e01b8152600401610672929190611139565b6020604051808303816000875af1158015610691573d6000803e3d6000fd5b505050506040513d601f19601f820116820180604052508101906106b5919061119a565b506000600a60003373ffffffffffffffffffffffffffffffffffffffff1673ffffffffffffffffffffffffffffffffffffffff1681526020019081526020016000205414156107175760056000815480929190610711906111c7565b91905055505b5050565b600030905090565b3361072c610ca7565b6004819055504260038190555061074281610364565b600960008373ffffffffffffffffffffffffffffffffffffffff1673ffffffffffffffffffffffffffffffffffffffff16815260200190815260200160002081905550600454600760008373ffffffffffffffffffffffffffffffffffffffff1673ffffffffffffffffffffffffffffffffffffffff168152602001908152602001600020819055506000600960003373ffffffffffffffffffffffffffffffffffffffff1673ffffffffffffffffffffffffffffffffffffffff168152602001908152602001600020541161084d576040517f08c379a000000000000000000000000000000000000000000000000000000000815260040161084490611263565b60405180910390fd5b6000600960003373ffffffffffffffffffffffffffffffffffffffff1673ffffffffffffffffffffffffffffffffffffffff1681526020019081526020016000205490506000600960003373ffffffffffffffffffffffffffffffffffffffff1673ffffffffffffffffffffffffffffffffffffffff16815260200190815260200160002081905550600160009054906101000a900473ffffffffffffffffffffffffffffffffffffffff1673ffffffffffffffffffffffffffffffffffffffff1663a9059cbb33836040518363ffffffff1660e01b8152600401610933929190611139565b6020604051808303816000875af1158015610952573d6000803e3d6000fd5b505050506040513d601f19601f82011682018060405250810190610976919061119a565b5080600860003373ffffffffffffffffffffffffffffffffffffffff1673ffffffffffffffffffffffffffffffffffffffff16815260200190815260200160002060008282546109c69190611066565b925050819055505050565b6000600654905090565b60008054906101000a900473ffffffffffffffffffffffffffffffffffffffff1681565b60025481565b60055481565b60076020528060005260406000206000915090505481565b33610a2c610ca7565b60048190555042600381905550610a4281610364565b600960008373ffffffffffffffffffffffffffffffffffffffff1673ffffffffffffffffffffffffffffffffffffffff16815260200190815260200160002081905550600454600760008373ffffffffffffffffffffffffffffffffffffffff1673ffffffffffffffffffffffffffffffffffffffff168152602001908152602001600020819055506000600a60003373ffffffffffffffffffffffffffffffffffffffff1673ffffffffffffffffffffffffffffffffffffffff168152602001908152602001600020541415610b2c5760056000815480929190610b2690611283565b91905055505b8160066000828254610b3e9190611066565b9250508190555081600a60003373ffffffffffffffffffffffffffffffffffffffff1673ffffffffffffffffffffffffffffffffffffffff1681526020019081526020016000206000828254610b949190611066565b9250508190555060008054906101000a900473ffffffffffffffffffffffffffffffffffffffff1673ffffffffffffffffffffffffffffffffffffffff166323b872dd3330856040518463ffffffff1660e01b8152600401610bf8939291906112cc565b6020604051808303816000875af1158015610c17573d6000803e3d6000fd5b505050506040513d601f19601f82011682018060405250810190610c3b919061119a565b505050565b6000600a60008373ffffffffffffffffffffffffffffffffffffffff1673ffffffffffffffffffffffffffffffffffffffff168152602001908152602001600020549050919050565b60086020528060005260406000206000915090505481565b60035481565b6000806006541415610cbc5760009050610d07565b600654670de0b6b3a764000060025460035442610cd99190610f78565b610ce39190610fac565b610ced9190610fac565b610cf79190611035565b600454610d049190611066565b90505b90565b600160009054906101000a900473ffffffffffffffffffffffffffffffffffffffff1681565b60045481565b610d7e600a60003373ffffffffffffffffffffffffffffffffffffffff1673ffffffffffffffffffffffffffffffffffffffff1681526020019081526020016000205461047e565b610d86610723565b565b600080fd5b600073ffffffffffffffffffffffffffffffffffffffff82169050919050565b6000610db882610d8d565b9050919050565b610dc881610dad565b8114610dd357600080fd5b50565b600081359050610de581610dbf565b92915050565b600060208284031215610e0157610e00610d88565b5b6000610e0f84828501610dd6565b91505092915050565b6000819050919050565b610e2b81610e18565b82525050565b6000602082019050610e466000830184610e22565b92915050565b610e5581610e18565b8114610e6057600080fd5b50565b600081359050610e7281610e4c565b92915050565b600060208284031215610e8e57610e8d610d88565b5b6000610e9c84828501610e63565b91505092915050565b610eae81610dad565b82525050565b6000602082019050610ec96000830184610ea5565b92915050565b6000819050919050565b6000610ef4610eef610eea84610d8d565b610ecf565b610d8d565b9050919050565b6000610f0682610ed9565b9050919050565b6000610f1882610efb565b9050919050565b610f2881610f0d565b82525050565b6000602082019050610f436000830184610f1f565b92915050565b7f4e487b7100000000000000000000000000000000000000000000000000000000600052601160045260246000fd5b6000610f8382610e18565b9150610f8e83610e18565b925082821015610fa157610fa0610f49565b5b828203905092915050565b6000610fb782610e18565b9150610fc283610e18565b9250817fffffffffffffffffffffffffffffffffffffffffffffffffffffffffffffffff0483118215151615610ffb57610ffa610f49565b5b828202905092915050565b7f4e487b7100000000000000000000000000000000000000000000000000000000600052601260045260246000fd5b600061104082610e18565b915061104b83610e18565b92508261105b5761105a611006565b5b828204905092915050565b600061107182610e18565b915061107c83610e18565b9250827fffffffffffffffffffffffffffffffffffffffffffffffffffffffffffffffff038211156110b1576110b0610f49565b5b828201905092915050565b600082825260208201905092915050565b7f77697468647261773a204e6f7420656e6f7567682062616c616e636521000000600082015250565b6000611103601d836110bc565b915061110e826110cd565b602082019050919050565b60006020820190508181036000830152611132816110f6565b9050919050565b600060408201905061114e6000830185610ea5565b61115b6020830184610e22565b9392505050565b60008115159050919050565b61117781611162565b811461118257600080fd5b50565b6000815190506111948161116e565b92915050565b6000602082840312156111b0576111af610d88565b5b60006111be84828501611185565b91505092915050565b60006111d282610e18565b915060008214156111e6576111e5610f49565b5b600182039050919050565b7f6765745265776172643a20796f7520646f6e2774206861766520616e7920726560008201527f7761726421000000000000000000000000000000000000000000000000000000602082015250565b600061124d6025836110bc565b9150611258826111f1565b604082019050919050565b6000602082019050818103600083015261127c81611240565b9050919050565b600061128e82610e18565b91507fffffffffffffffffffffffffffffffffffffffffffffffffffffffffffffffff8214156112c1576112c0610f49565b5b600182019050919050565b60006060820190506112e16000830186610ea5565b6112ee6020830185610ea5565b6112fb6040830184610e22565b94935050505056fea26469706673582212206748e4d907381b57531cd6fa06ab32197b10c711d6b651351270cdbc29d8543164736f6c634300080a0033",
  "immutableReferences": {},
  "source": "// SPDX-License-Identifier: MIT\r\n\r\npragma solidity ^0.8.0;\r\n\r\nimport '@openzeppelin/contracts/token/ERC20/IERC20.sol';\r\nimport '@openzeppelin/contracts/token/ERC20/ERC20.sol';\r\n\r\ncontract Staking {\r\n\r\n    //   \r\n    IERC20 public stakingToken;\r\n\r\n    //  \r\n    IERC20 public rewardsToken;\r\n\r\n    //   -    \"    \"     \r\n    uint public rewardRate = 3*10**13;\r\n\r\n    /*\r\n          \r\n\r\n                 \r\n            1- stake() -  \r\n            2- withdraw() -  \r\n            3- getReward() -  \r\n    */\r\n    uint public lastUpdateTime;\r\n\r\n    // \"    \"        \r\n    uint public rewardPerTokenStored;\r\n\r\n    //         \r\n    uint public activeInvestors;\r\n\r\n    //        \r\n    uint private _totalSupply;\r\n\r\n\r\n    // \"    \"         \r\n    mapping(address => uint) public userRewardPerTokenPaid;\r\n\r\n    //                \r\n    mapping(address => uint) public userTotalRewardPaid;\r\n\r\n    //  \"           \"\r\n    mapping(address => uint) public rewards;\r\n\r\n    //       \r\n    mapping(address => uint) private _balances;\r\n\r\n\r\n    //            \r\n    constructor(address _stakingToken, address _rewardsToken) {\r\n        //   \r\n        stakingToken = IERC20(_stakingToken);\r\n        //  \r\n        rewardsToken = IERC20(_rewardsToken);\r\n    }\r\n\r\n\r\n    //////////////////////////////////////////////////////////////////////////////////\r\n    //                           Stake -                                //\r\n    //////////////////////////////////////////////////////////////////////////////////\r\n\r\n    //       \r\n    function stake(uint _amount) external updateReward(msg.sender) {\r\n        \r\n        //                    \r\n        if(_balances[msg.sender] == 0)\r\n            activeInvestors++;\r\n\r\n        //       \r\n        _totalSupply += _amount;\r\n\r\n        //       \r\n         _balances[msg.sender] += _amount;   \r\n\r\n\r\n        //         \r\n        //              - \r\n        // StakingToken.approve(stakingArd, _amount)\r\n        stakingToken.transferFrom(msg.sender, address(this), _amount);\r\n    }\r\n\r\n\r\n    //          \r\n    modifier updateReward(address account) {\r\n\r\n        //  \"    \"        \r\n        rewardPerTokenStored = rewardPerToken();\r\n\r\n        //     \r\n        lastUpdateTime = block.timestamp;\r\n\r\n        // \" \"           \r\n        rewards[account] = earned(account);\r\n\r\n        // \"    \"        \r\n        userRewardPerTokenPaid[account] = rewardPerTokenStored;\r\n\r\n        //     \r\n        _;\r\n    }\r\n\r\n\r\n    //  \"    \"        \r\n    function rewardPerToken() public view returns(uint) {\r\n        \r\n        if(_totalSupply == 0) {\r\n            return 0;\r\n        }\r\n\r\n        return rewardPerTokenStored + ( ( (block.timestamp - lastUpdateTime) * rewardRate * 1e18 ) / _totalSupply );\r\n    }\r\n\r\n\r\n    //             \r\n    function earned(address account) public view returns(uint) {\r\n        \r\n        return ( rewards[account] + ( _balances[account] * (rewardPerToken() - userRewardPerTokenPaid[account] ) ) / 1e18 );\r\n    }\r\n\r\n\r\n\r\n    //////////////////////////////////////////////////////////////////////////////////\r\n    //                          withdraw -                           //\r\n    //////////////////////////////////////////////////////////////////////////////////\r\n\r\n    //           \r\n    function withdraw(uint _amount) public updateReward(msg.sender) {\r\n\r\n        //     \r\n        require( _balances[msg.sender] >= _amount, \"withdraw: Not enough balance!\");\r\n\r\n        //          \r\n        _totalSupply -= _amount;\r\n\r\n        //         \r\n        _balances[msg.sender] -= _amount;\r\n\r\n        //             \r\n        stakingToken.transfer(msg.sender, _amount);\r\n\r\n        //                 \r\n        if(_balances[msg.sender] == 0)\r\n            activeInvestors--;\r\n    }\r\n\r\n\r\n    //////////////////////////////////////////////////////////////////////////////////\r\n    //                         getReward -                                //\r\n    //////////////////////////////////////////////////////////////////////////////////\r\n\r\n    //  \" \"      \r\n    function getReward() public updateReward(msg.sender) {\r\n\r\n        //       \r\n        require(rewards[msg.sender] > 0, \"getReward: you don't have any reward!\");\r\n        \r\n        // \" \"           \r\n        uint reward = rewards[msg.sender];\r\n\r\n        //   \" \"           \r\n        rewards[msg.sender] = 0;\r\n\r\n        //               \r\n        rewardsToken.transfer(msg.sender, reward);\r\n\r\n        //                 \r\n        userTotalRewardPaid[msg.sender] += reward;\r\n    }\r\n\r\n\r\n\r\n    //////////////////////////////////////////////////////////////////////////////////\r\n    //                            Exit -                                //\r\n    //////////////////////////////////////////////////////////////////////////////////\r\n\r\n    //   /             \r\n    function exit() external {\r\n\r\n        //    \r\n        withdraw(_balances[msg.sender]);\r\n  \r\n        //  \"   \"  \r\n        getReward();   \r\n    }\r\n\r\n\r\n    //////////////////////////////////////////////////////////////////////////////////\r\n    //                           Other Functions                                    //\r\n    //////////////////////////////////////////////////////////////////////////////////\r\n\r\n    //   \r\n    function getAddress() public view returns(address) {\r\n        return address(this);\r\n    }\r\n\r\n\r\n    //       \r\n    function getTotalStakedTokens() public view returns(uint) {\r\n        return _totalSupply;\r\n    }\r\n\r\n\r\n    //        \r\n    function getUserStakedTokens(address account) public view returns(uint) {\r\n        return _balances[account];\r\n    }\r\n}",
  "sourcePath": "C:\\DApps\\BC5\\Staking-Dapp\\contracts\\Staking.sol",
  "compiler": {
    "name": "solc",
    "version": "0.8.10+commit.fc410830.Emscripten.clang"
  },
  "schemaVersion": "3.4.3",
  "updatedAt": "2022-04-19T13:53:18.409Z",
  "networkType": "ethereum",
  "devdoc": {
    "kind": "dev",
    "methods": {},
    "version": 1
  },
  "userdoc": {
    "kind": "user",
    "methods": {},
    "version": 1
  }
}